:100000000C941E010C9446010C9446010C9446017C
:100010000C9446010C9446010C9446010C94460144
:100020000C9446010C9446010C9446010C94301239
:100030000C9446010C9446010C9446010C94460124
:100040000C948E110C9446010C94FE110C94D81152
:100050000C9446010C9446010C9446010C94460104
:100060000C9446010C9446014E414E494E49545958
:10007000494E46CDCCCC3D0AD7233C17B7D1387773
:10008000CC2B329595E6241FB14F0A000020410089
:1000900000C84200401C4620BCBE4CCA1B0E5AAED3
:1000A000C59D744F4B204D4F564500455252205030
:1000B0004C414E5F4641494C454400455252205206
:1000C000414E47450000000000240027002A00237D
:1000D000205245414459002075732C20686F6D658E
:1000E0002000202D2000232072616E6765200023F0
:1000F00020756E69747320617265206D6963726F1B
:100100007365636F6E6473206F662070756C7365C2
:100110002077696474682C206E6F74206465677240
:10012000656573002320576562536572766F446579
:100130006D6F0045525220554E4B4E4F574E002387
:1001400020686F6D696E67004552522055534147D4
:1001500045004F4B2052414E4745004552522052D8
:10016000414E474500455252205553414745004FA7
:100170004B204C494D0045525220555341474500B4
:100180004F4B20545950450045525220555341473A
:100190004500455252205553414745004F4B204999
:1001A00044205554492D576562536572766F4465F6
:1001B0006D6F203100455252204255535900204462
:1001C0004F4E4520004F4B2053544F500045525244
:1001D00020414C52454144595F49444C45004F4BE6
:1001E0002050494E470054454C454D200020444F77
:1001F0004E45200000000000250028002B000404CC
:1002000004040404040402020202020203030303BE
:10021000030301020408102040800102040810209A
:100220000102040810200000000800020100000381
:1002300004070000000000000000EC1211241FBEA3
:10024000CFEFD8E0DEBFCDBF12E0A0E0B1E0E8ED37
:10025000FDE302C005900D92A035B107D9F724E067
:10026000A0E5B2E001C01D92A830B207E1F711E0AD
:10027000CEE1D1E004C02197FE010E94B61DCD3130
:10028000D107C9F70E94DC130C94EA1E0C940000FD
:1002900090E0FC01EA5DFD4F2491FC01EE5EFD4F14
:1002A0003491FC01E250FE4FE491EE23C9F0222389
:1002B00039F0233001F1A8F4213019F1223029F16D
:1002C000F0E0EE0FFF1FEC50FE4FA591B4918FB7F9
:1002D000F894EC91611126C030953E233C938FBF7A
:1002E00008952730A9F02830C9F0243049F78091CB
:1002F00080008F7D03C0809180008F778093800085
:10030000DFCF84B58F7784BDDBCF84B58F7DFBCF06
:100310008091B0008F778093B000D2CF8091B000F1
:100320008F7DF9CF3E2BDACF3FB7F89480919602BC
:1003300090919702A0919802B091990226B5A89B3E
:1003400005C02F3F19F00196A11DB11D3FBFBA2F67
:10035000A92F982F8827BC01CD01620F711D811D27
:10036000911D42E0660F771F881F991F4A95D1F7AC
:100370000895AF92BF92CF92DF92EF92FF920F93C8
:100380001F93CF93DF936C017B018B01040F151F2B
:10039000EB015E01AE18BF08C017D10759F0699193
:1003A000D601ED91FC910190F081E02DC6010995F7
:1003B000892B79F7C501DF91CF911F910F91FF90A4
:1003C000EF90DF90CF90BF90AF900895FC01538DD8
:1003D000448D252F30E0842F90E0821B930B54171F
:1003E00010F0CF96089501970895FC01918D828DAC
:1003F000981761F0A28DAE0FBF2FB11D5D968C9145
:10040000928D9F5F9F73928F90E008958FEF9FEF83
:100410000895FC01918D828D981731F0828DE80F3F
:10042000F11D858D90E008958FEF9FEF0895FC01F9
:10043000918D228D892F90E0805C9F4F821B9109C6
:100440008F73992708958AE992E00E94170221E0AC
:10045000892B09F420E0822F089580E090E0892B19
:1004600029F00E94230281110C9400000895FC01E0
:10047000A48DA80FB92FB11DA35ABF4F2C91848D05
:1004800090E001968F739927848FA689B7892C9362
:10049000A089B1898C91837080648C93938D848DB5
:1004A000981306C00288F389E02D80818F7D8083B8
:1004B0000895EF92FF920F931F93CF93DF93EC0178
:1004C00081E0888F9B8D8C8D98131AC0E889F989FB
:1004D000808185FF15C09FB7F894EE89FF896083FE
:1004E000E889F98980818370806480839FBF81E07F
:1004F00090E0DF91CF911F910F91FF90EF900895C1
:10050000F62E0B8D10E00F5F1F4F0F731127E02E9B
:100510008C8D8E110CC00FB607FCFACFE889F989D3
:10052000808185FFF5CFCE010E943702F1CFEB8DA0
:10053000EC0FFD2FF11DE35AFF4FF0829FB7F894A7
:100540000B8FEA89FB8980818062CFCF0F931F9345
:10055000CF93DF938C01D0E0C0E0F801EC0FFD1FDA
:100560006491662341F08AE992E00E945902892B46
:1005700011F02196F2CFCE01DF91CF911F910F9113
:100580000895682F8AE992E00C945902CF93DF9383
:10059000EC01888D8823B9F0AA89BB89E889F9899B
:1005A0008C9185FD03C0808186FD0DC00FB607FCD0
:1005B000F7CF8C9185FFF2CF808185FFEDCFCE0103
:1005C0000E943702E9CFDF91CF910895FC01668D3B
:1005D000778D80A191A108952F923F924F925F92C3
:1005E0006F927F928F929F92AF92BF92CF92DF9243
:1005F000EF92FF920F931F93CF93DF93CDB7DEB7A8
:1006000063970FB6F894DEBF0FBECDBF9C838B837C
:100610004A015B011901FA82E982DC019296BC91E0
:10062000BF87B1112FC0FC0182819381A481B58164
:10063000F90180839183A283B383D8011D921D9217
:100640001D921C921397F70110821182128213825D
:100650008F8563960FB6F894DEBF0FBECDBFDF91D6
:10066000CF911F910F91FF90EF90DF90CF90BF90AF
:10067000AF909F908F907F906F905F904F903F9042
:100680002F90089520E030E0A901CB01B4010E9431
:10069000CA1987FF03C0812C912C5401AB81BC8106
:1006A0005E96CD90DD90ED90FC90919720E030E04B
:1006B000A901C701B6010E94CA19882341F0A5010A
:1006C0009401C701B6010E94CA191816CCF0EB813B
:1006D000FC8186819781A085B185F101808391831A
:1006E000A283B383D8011D921D921D921C92139771
:1006F000E981FA8110821182128213821F86A8CFAB
:10070000AB81BC811A962D913D914D915C911D97C5
:1007100052966D917D918D919C9155970E94301AC2
:100720002B013C01EB81FC81C688D788E08CF18CE1
:1007300082819381A481B5818F839887A987BA87A5
:1007400020E030E040E05FE3C301B2010E94301AD4
:10075000688B798B8A8B9B8BA7019601C501B401AD
:100760000E94CA1987FF2AC0288939894A895B896A
:10077000C501B4010E94301AA50194010E94301AEB
:100780002F81388549855A850E94651BF101608358
:10079000718382839383A3019201C501B4010E94F6
:1007A000301AD8016D937D938D939C931397E981B3
:1007B000FA8140825182628273824ACFAB81BC81CE
:1007C0005A968D919D910D90BC91A02D8B879C8701
:1007D000AD87BE87A7019601C301B2010E94301AFE
:1007E0006B837C838D839E83288939894A895B89C1
:1007F000C701B6010E94301AA70196010E94301A63
:100800002F81388549855A850E94651B6F837887BB
:1008100089879A872B853C854D855E85C501B40106
:100820000E94CA1987FF28C0A7019601C501B4011B
:100830000E94641B2B813C814D815E810E94301A95
:100840002F81388549855A850E94651BF101608397
:100850007183828393838B819C81AD81BE81F801FA
:1008600080839183A283B383A981BA811D921D9253
:100870001D921C921397ECCE2B853C854D855E8591
:10088000C501B4010E94641B4B015C01A7019601E4
:100890006B857C858D859E850E94641B2B813C81A8
:1008A0004D815E810E94301A2F81388549855A8595
:1008B0000E94651B6B017C012B813C814D815E8117
:1008C000C501B4010E94301A9B01AC01C701B601F9
:1008D0000E94651B6B017C01288939894A895B89E3
:1008E000C501B4010E94301AA50194010E94301A7A
:1008F0009B01AC01C701B6010E94641BF10160833A
:10090000718382839383A5019401C301B2010E9484
:10091000301A9B01AC016B817C818D819E810E948C
:10092000641BD8016D937D938D939C931397D30192
:10093000C201B058E981FA8180839183A283B38395
:1009400087CEFC0162A573A584A595A508952F9275
:100950003F924F925F926F927F928F929F92AF924F
:10096000BF92CF92DF92EF92FF920F931F93CF939C
:10097000DF93CDB7DEB761970FB6F894DEBF0FBE39
:10098000CDBF9A8389834A015B013A872987170182
:10099000FC01EE57FF4F80818B87811130C0E981C8
:1009A000FA8182819381A481B581F9018083918349
:1009B000A283B383D8011D921D921D921C9213979E
:1009C000F70110821182128213828B8561960FB615
:1009D000F894DEBF0FBECDBFDF91CF911F910F9175
:1009E000FF90EF90DF90CF90BF90AF909F908F904F
:1009F0007F906F905F904F903F902F90089520E0F0
:100A000030E0A901CB01B4010E94CA1987FF03C0DD
:100A1000812C912C5401A981BA819A96CD90DD90B8
:100A2000ED90FC909D9720E030E0A901C701B60150
:100A30000E94CA19882341F0A5019401C701B6019B
:100A40000E94CA191816CCF0E981FA818681978133
:100A5000A085B185E985FA8580839183A283B383DC
:100A6000D8011D921D921D921C921397F1011082C4
:100A70001182128213821B86A8CFC980DA80F2E12C
:100A8000CF0ED11CF12CE12CD6012D913D914D9131
:100A90005D916D01C501B4010E94CA1987FF71C142
:100AA000F701EE0FFF1FEE0FFF1FEA53FE4FA98164
:100AB000BA811E962D913D914D915C915197608127
:100AC0007181828193810E94301AE981FA812285A5
:100AD0003385448555850E94301A2B013C01E11471
:100AE000F10409F089C0A981BA8112968D919D9176
:100AF0000D90BC91A02D89839A83AB83BC83A30105
:100B00009201C501B4010E94301A2B013C0120E082
:100B100030E0A9010E94651BF1016083718382832B
:100B2000938320E030E0A901C501B4010E94301A8E
:100B30006B017C01A3019201C501B4010E94301A2E
:100B40006D837E838F83988720E030E0A901C70101
:100B5000B6010E94651B2B013C0120E030E040E023
:100B60005FE36D817E818F8198850E94301A9B01A1
:100B7000AC01C301B2010E94651BD8016D937D9346
:100B80008D939C931397A7019601C501B4010E9410
:100B9000301A20E030E040E05FE30E94301A2B0181
:100BA0003C01A701960169817A818B819C810E9419
:100BB000651B9B01AC01C301B2010E94651B6B0167
:100BC0007C012D813E814F815885C501B4010E9471
:100BD000301A20E030E040EC50E40E94A21C9B015F
:100BE000AC01C701B6010E94651BE985FA856083E7
:100BF000718382839383E9CEF1E0EF1AF108EE0C62
:100C0000FF1CEE0CFF1C89819A818E0D9F1D998B14
:100C1000888BFC01EA59FF4F80819181A281B381C9
:100C20008C879D87AE87BF87E889F989E65BFF4F90
:100C300080819181A281B3818D839E83AF83B887A8
:100C4000A889B9899E968D919D910D90BC91A02DFA
:100C500089839A83AB83BC83E889F98922893389A4
:100C600044895589C501B4010E94641B6B017C0154
:100C7000AC019B01C301B2010E94301A2B013C015F
:100C8000AC019B0169817A818B819C810E94651BEB
:100C9000D1016D937D938D939C931397A70196013A
:100CA00069817A818B819C810E94301A4B015C01A1
:100CB000A3019201C701B6010E94301A69837A83A9
:100CC0008B839C83A50194016D817E818F819885A2
:100CD0000E94651B2B013C0120E030E040E05FE317
:100CE00069817A818B819C810E94301A9B01AC01C1
:100CF000C301B2010E94651BF80160837183828386
:100D00009383A70196016D817E818F8198850E94D2
:100D1000301A2C853D854E855F850E94651B2B0111
:100D20003C01A5019401C701B6010E94301A20E0E0
:100D300030E040E05FE30E94301A9B01AC01C30148
:100D4000B2010E94651B4B015C0129813A814B81F4
:100D50005C81C701B6010E94301A20E030E040EC0F
:100D600050E40E94A21C9B01AC01C501B4010E9489
:100D7000651BA985BA856D937D938D939C9313977D
:100D800024CEBFEFEB1AFB0AE7E0EE16F10409F000
:100D90007BCE5ACE089508950895CF92DF92EF92B8
:100DA000FF92CF93DF936B017C0120E030E048E4B9
:100DB00054E40E94CA1987FD5FC020E030E849E092
:100DC00055E4C701B6010E94581D18163CF4C12C09
:100DD000F0E8DF2EF9E0EF2EF5E4FF2EC092AE0131
:100DE000D092AF01E092B001F092B101C091FD0349
:100DF000CC30D8F520E030E040E05FE3C701B60139
:100E00000E94651B0E94141DAB01E091FE0388E85F
:100E100090E08E1B9109E7FD9395880F991F880F2D
:100E2000991F4817590784F0E091FF0388E592E085
:100E30008E1B9109E7FD9395880F991F880F991FC5
:100E4000481759070CF4CA010297880F991F4FB72A
:100E5000F8942C2F30E0E901CC0FDD1FC20FD31F17
:100E6000C95CDC4F9A8389834FBFDF91CF91FF909C
:100E7000EF90DF90CF900895C12CD12CE8E4EE2EB6
:100E8000E4E4FE2EABCF809151029091520281306A
:100E9000910541F0029719F488E693E0089580E007
:100EA00091E0089583E291E00895FC0164AD75AD91
:100EB00086AD97AD0895EF92FF920F931F934296E0
:100EC0000E94A7041F910F91FF90EF9008958F92B9
:100ED0009F92AF92BF920F931F93CF93DF93CDB7A3
:100EE000DEB7A1970FB6F894DEBF0FBECDBF19A233
:100EF000423008F44AE08E010F5D1F4F842E912C82
:100F0000B12CA12CA50194010E94331BE62FB9013D
:100F1000CA01EA3044F5E05DD801EE938D01232B40
:100F2000242B252B79F790E080E0109769F0FD01E4
:100F300001900020E9F73197AF014A1B5B0BBD011F
:100F40008AE992E00E94B901A1960FB6F894DEBF3B
:100F50000FBECDBFDF91CF911F910F91BF90AF908A
:100F60009F908F900895E95CD7CF42E050E060E118
:100F700072E08AE992E00C94B901CF93DF930E946A
:100F8000A602EC010E94B5078C0F9D1FDF91CF9147
:100F900008954F925F926F927F92AF92BF92CF92DD
:100FA000DF92EF92FF920F931F93CF932B013C019F
:100FB0006091A8017091A901072E000C880B990B74
:100FC0000E94D119A30192010E94581D181684F0A5
:100FD0006091A6017091A701072E000C880B990B58
:100FE0000E94D119A30192010E94CA1987FF14C05F
:100FF0008BEB90E00E94BD07C0E08C2FCF911F913A
:101000000F91FF90EF90DF90CF90BF90AF907F90C7
:101010006F905F904F90089580915102909152028D
:10102000029781F48091AA019091AB01A091AC014B
:10103000B091AD0180936A0390936B03A0936C030E
:10104000B0936D030E9443074091AE015091AF01F0
:101050006091B0017091B101DC01ED91FC910480CF
:10106000F581E02DA12CB12C65012CE5E22E23E0C9
:10107000F22E930182010995C82F8BEA90E0CC23D0
:1010800099F10E944307DC01ED91FC910084F18508
:10109000E02D09956093530270935402809355029A
:1010A000909356022FB7F8948091920290919302F8
:1010B000A0919402B09195022FBF80935702909314
:1010C0005802A0935902B0935A020E94940160936F
:1010D0005B0270935C0280935D0290935E0281E0FC
:1010E00080935F0283EA90E00E94BD0786CFCF9293
:1010F000DF92EF92FF92CF93DF9397FF19C06B01BE
:101100007C018DE20E94C102EC0166277727CB01AA
:101110006C197D098E099F094AE00E9467078C0FB0
:101120009D1FDF91CF91FF90EF90DF90CF900895BA
:101130004AE0DF91CF91FF90EF90DF90CF900C9439
:101140006707CF93DF930E947708EC010E94B507F1
:101150008C0F9D1FDF91CF9108952F923F924F9258
:101160005F926F927F928F929F92AF92BF92CF9237
:10117000DF92EF92FF920F931F93CF93DF93CDB740
:10118000DEB761970FB6F894DEBF0FBECDBF998B67
:10119000888B49835A836B837C83280139018701BB
:1011A000AD82BE82CF82D886DC0112964D935D93CC
:1011B0006D937C931597FC014682578260867186F9
:1011C000A901920169817A818B819C810E94CA194F
:1011D00018160CF05CC080E090E0A0E8BFEBE88956
:1011E000F98982879387A487B587D8011496CD9013
:1011F000DD90ED90FC901797C28AD38AE48AF58A35
:1012000012A229813A814B815C81C301B2010E9403
:10121000641B4B015C0120E030E0A9010E94CA1967
:1012200081113AC0A889B9891E961D921D921D92FE
:101230001C925197FD01168E178E10A211A25A967C
:101240001D921D921D921C925D97168A178A108E10
:10125000118E81E082A3FF24F3948F2D61960FB647
:10126000F894DEBF0FBECDBFDF91CF911F910F91DC
:10127000FF90EF90DF90CF90BF90AF909F908F90B6
:101280007F906F905F904F903F902F90089580E0F7
:1012900090E0A0E8BFE3A3CFD8014D905D906D90A2
:1012A0007C9020E030E0A901C301B2010E94581DEA
:1012B00018164CF420E030E0A901C701B6010E94E5
:1012C000581D1816A4F0E889F98916861786108A21
:1012D000118A168E178E10A211A2128E138E148EE2
:1012E000158E168A178A108E118EF12CB6CFD50165
:1012F000C401BF778C879D87AE87BF87A30192010A
:10130000C301B2010E94301AA70196010E94A21CDB
:101310004B015C01AC019B016C857D858E859F85B1
:101320000E94581DA701960187FD87C0C301B20125
:101330000E94A21C162F272E382E092FA5019401DA
:101340006C857D858E859F850E94641BA30192011B
:101350000E94A21C212F322D432D502F0E94651B6D
:10136000698379878A879B87298139854A855B8547
:10137000612F722D832D902F0E94651B4B015C0104
:1013800020E030E0A9016D817E818F8198850E94E7
:10139000CA19181654F42D813E814F815885C50114
:1013A000B4010E94581D87FD63C0A889B9891E96A3
:1013B0004D925D926D927C92519720E030E0A901B0
:1013C0006D817E818F8198850E94581DFF24F39442
:1013D00018166CF42D813E814F815885C501B401EA
:1013E0000E94581D18160CF0F12C81E0F826812F70
:1013F000922DA32DB02FE889F989868B978BA08F2A
:10140000B18F89819985AA85BB85828F938FA48F9F
:10141000B58F9C01AD01612F722D832D902F0E94FD
:10142000651BA889B9895E966D937D938D939C9376
:10143000919781E092968C9310CF6C857D858E85F7
:101440009F850E94A21C0E94631D162F272E382EF6
:10145000092F262F372F482F592FC701B6010E9479
:10146000301A2B013C01198329863A860B877CCFE1
:101470002D813E814F815885CA01B9010E94301AE1
:101480004B015C0120E030E040E850E46C857D8554
:101490008E859F850E94301AA70196010E94A21C8A
:1014A0009B01AC01C501B4010E94641B4B015C01AE
:1014B00020E030E0A9010E94CA1987FF03C0812CF7
:1014C000912C5401C501B4010E94631D4B015C01C4
:1014D00020E030E040E05FE3C701B6010E94301A2F
:1014E0002B013C01A50194016D817E818F8198853E
:1014F0000E94641B9B01AC01C301B2010E94301A1F
:101500004B015C01E889F98986869786A08AB18AB1
:10151000A70196010E94A21C162F272E382E092FF4
:10152000A5019401C501B4010E94301AA7019601DA
:101530000E94A21C9B01AC016C857D858E859F85D8
:101540000E94641B6B017C0120E030E0A9010E9435
:10155000581D18169CF4A5019401C701B6010E94FC
:10156000A21C212F322D432D502F0E94651B698311
:1015700079878A879B87FF24F39439CF198329863B
:101580003A860B87F8CF4F925F926F927F928F923D
:101590009F92AF92BF92CF92DF92EF92FF920F9302
:1015A0001F93CF93DF93CDB7DEB76C970FB6F89448
:1015B000DEBF0FBECDBF69837A838B839C832901F5
:1015C0003A01E986FA860B871C87A8019701C801B2
:1015D000B7010E94301A6D837E838F839887A6019E
:1015E00095010E94A21C698B7A8B8B8B9C8BA80126
:1015F00097016D817E818F8198850E94301A6D8B55
:101600007E8B8F8B988FA6019501C601B5010E9434
:10161000301A698F7A8F8B8F9C8F2D893E894F89E5
:10162000588DCA01B9010E94651B298D3A8D4B8DD9
:101630005C8D0E94A21C6D877E878F87988BA3018B
:101640009201C601B5010E94301A9B01AC016D8167
:101650007E818F8198850E94581D18160CF09CC0C1
:10166000A6019501C301B2010E94A21C0E94631D44
:101670006D837E838F839887A3019201C301B2019A
:101680000E94651B2D813E814F8158850E94301A32
:101690006D837E838F839887A301920169897A89FC
:1016A0008B899C890E94581D18160CF094C02981C2
:1016B0003A814B815C816D857E858F8598890E94FA
:1016C000CA1918160CF43EC1A6019501C301B20156
:1016D0000E94A21C0E94631D5B016C01A301920188
:1016E00069817A818B819C810E94A21C2B013C0123
:1016F00075018601C501D601F40180839183A2831F
:10170000B383C701D80184839583A683B7839701E8
:10171000A801B501C6010E94651BF40160877187AD
:10172000828793874486558666867786A3019201D1
:10173000B501C6010E94651BF401608B718B828B21
:10174000938BA3019201B701C8010E94651BF401AC
:10175000648B758B868B978B9501A6010E94651B08
:10176000F401608F718F828F938F6C960FB6F8940F
:10177000DEBF0FBECDBFDF91CF911F910F91FF90C4
:10178000EF90DF90CF90BF90AF909F908F907F9021
:101790006F905F904F90089529853A854B855C85C1
:1017A000C301B2010E94A21C6D837E838F83988740
:1017B000A601950169857A858B859C850E94A21C6E
:1017C0009B01AC016D817E818F8198850E94651B94
:1017D000A30192015BCFA301920169897A898B8968
:1017E0009C890E94CA1918161CF129813A814B81E3
:1017F0005C816D857E858F8598890E94581D18169D
:1018000014F5A6019501C601B5010E94651B9B0157
:10181000AC0169817A818B819C810E94A21C0E940B
:10182000DD1B5B016C019B01AC010E94651B5ECF5F
:10183000A301920169897A898B899C890E94CA19BE
:1018400018160CF473C029813A814B815C816D8537
:101850007E858F8598890E94CA1918160CF466C077
:10186000A601950169857A858B859C850E94A21CBD
:101870005B016C0129813A814B815C816D817E81A4
:101880008F8198850E94CA191816ACF029853A856F
:101890004B855C85C301B2010E94A21C7B018C01B7
:1018A000A301920169817A818B819C810E94A21C93
:1018B0002B013C011FCF20E030E040E850E469817B
:1018C0007A818B819C810E94301A298D3A8D4B8DB3
:1018D0005C8D0E94301A2D893E894F89588D0E9457
:1018E000651B2B013C0129853A854B855C85698DFB
:1018F0007A8D8B8D9C8D0E94301A9B01AC01C301A7
:10190000B2010E94A21C0E94631D9501A6010E94C3
:10191000641B20E030E040E05FE30E94301A7B016E
:101920008C019501A6010E94651BC2CF412C512C50
:101930003201E12CF12C00E010E0A12CB12CC12CE3
:10194000D12CD8CEA301920169897A898B899C898F
:101950000E94CA1918166CF029813A814B815C816A
:101960006D857E858F8598890E94581D18160CF408
:1019700048CF29813A814B815C816D857E858F8539
:1019800098890E94581D18160CF052CF29813A816F
:101990004B815C816D817E818F8198850E94CA19FF
:1019A00018160CF091CE2DCF2F923F924F925F924E
:1019B0006F927F928F929F92AF92BF92CF92DF925F
:1019C000EF92FF920F931F93CF93DF93CDB7DEB7C4
:1019D000AC970FB6F894DEBF0FBECDBF1C012A0135
:1019E0003B0109831A832B833C83FD8AEC8AAD82F9
:1019F000BE82CF82D886DC0112964D925D926D92A6
:101A00007C921597A901980116962D933D934D93BD
:101A10005C931997FC01EE57FF4F1082CB01B20186
:101A20000E94CA1987FD73C029813A814B815C816C
:101A3000C301B2010E94581D18160CF46DC080E05D
:101A400090E0DC01F10182879387A487B587AC8998
:101A5000BD892D913D914D915C912B873C874D87A0
:101A60005E8720E030E0A9016B857C858D859E85B1
:101A70000E94581D181634F5AC89BD8914962D9115
:101A80003D914D915C9117972F87388B498B5A8BDD
:101A900020E030E0A9016F85788989899A890E94C0
:101AA000581D18167CF4EC89FD89A084B184C28489
:101AB000D38420E030E0A901C601B5010E94581D81
:101AC00018167CF1D1011E961D921D921D921C923A
:101AD0005197F1017296BEE22B0E311CDF01AC5A18
:101AE000BF4F1D921D921D921C92139710AE11AE06
:101AF00012AE13AE148E158E168E178E1192119291
:101B0000119211922E163F0649F71CA64BC080E099
:101B100090E0A0E8BFE396CF80E090E0A0E8BFEBC4
:101B200091CFA301920169817A818B819C810E946E
:101B3000641B69837A838B839C8320E030E0A90156
:101B40000E94CA19F1017296FA87E987811144C08F
:101B5000D1011E961D921D921D921C925197C1019A
:101B60008E96E985FA851192119211921192FA8757
:101B7000E987DF01108E118E128E138E14AA15AA1A
:101B800016AA17AAE05BFF4F4082518262827382DD
:101B9000A817B90731F7F101EE57FF4F81E08083B5
:101BA00031E03CA78CA5AC960FB6F894DEBF0FBE13
:101BB000CDBFDF91CF911F910F91FF90EF90DF90FC
:101BC000CF90BF90AF909F908F907F906F905F90DD
:101BD0004F903F902F90089589819A81AB81BC816D
:101BE000BF7789839A83AB83BC8389849A84EF848B
:101BF000F88809891A892B853C854D855E85BC014D
:101C0000CD010E94C30AAC89BD8918968D909D9024
:101C1000AD90BC901B97F10186869786A08AB18A09
:101C2000C2A4D3A4E4A4F5A42D813E814F8158859C
:101C3000C701B6010E94CA1987FF6FC120E030E0DA
:101C4000A901C701B6010E94581D18160CF065C104
:101C5000A70196016D817E818F8198850E94A21CCB
:101C60006D837E838F8398879B01AC010E94301A1D
:101C70002B013C012D813E814F8158850E94301AF5
:101C80009B01AC01C501B4010E94A21C5B016C0167
:101C9000D1011E96AD92BD92CD92DC925197A301D7
:101CA0009201EC89FD8964817581868197810E940A
:101CB000A21C2B013C012D813E814F815885AC89AE
:101CC000BD896D917D918D919C910E94A21C9B017B
:101CD000AC0189849A848301720169817A818B8144
:101CE0009C810E94C30AB1E0BCA7D10112968D91DC
:101CF0009D910D90BC91A02D8D839E83AF83B8875D
:101D0000D1011E962D913D914D915C9151972AA341
:101D10003BA34CA35DA31A962D913D914D915C91EF
:101D20001D972EA33FA348A759A7E6ECF1E0FD8B32
:101D3000EC8B81010E5E1F4F9101225D3F4F3BA74F
:101D40002AA719861B861F861B8AB12C1E8A912CF6
:101D5000A12C70E060E090E080E0AC89BD894D90FE
:101D60005D906D907D90BD8BAC8BD8012D913D9198
:101D70004D915D918D0129833A834B835C83272F9D
:101D8000362F492F582F69817A818B819C810E943F
:101D9000641B6B017C012AA13BA14CA15DA1C30185
:101DA000B2010E94301A2EA13FA148A559A50E9458
:101DB000301AA70196010E94301A2B013C012B2DED
:101DC0003E89492D5A2D0E94651B6A8F7B8F8C8F0F
:101DD0009D8F2B2D3E89492D5A2DC701B6010E949A
:101DE000301A4B015C01A3019201C701B6010E94A8
:101DF000301A6E8B7F8B888F998F29853B854F8515
:101E00005B89C501B4010E94651B2B013C0120E0E8
:101E100030E040E05FE36E897F89888D998D0E9474
:101E2000301A9B01AC01C301B2010E94651B6E8F89
:101E30007F8F88A399A329853B854F855B89C7013F
:101E4000B6010E94301A2D813E814F8158850E9433
:101E5000651B2B013C01A5019401C701B6010E943D
:101E6000301A20E030E040E05FE30E94301A9B012E
:101E7000AC01C301B2010E94651B4B015C012E89BC
:101E80003F89488D598DC701B6010E94301A20E064
:101E900030E040EC50E40E94A21C9B01AC01C50163
:101EA000B4010E94651B6D837E838F8398878A8D22
:101EB0009B8DAC8DBD8DF801808F918FA28FB38FDC
:101EC0008E8D9F8DA8A1B9A184AB95ABA6ABB7AB06
:101ED000E05BFF4F2D813E814F8158852083318308
:101EE0004283538379816A819B818C81BA8C3B8D3B
:101EF0003E8B9C8CAD8C4E8D49875F8D5B87AF8709
:101F0000BB8BEAA5FBA50E171F0709F026CFF10131
:101F1000EE57FF4F81E0808345CE20E030E0A901FD
:101F20006D817E818F8198850E94581D181694F4CA
:101F3000E1E0E9832D813E814F815885C701B601DB
:101F40000E94581D18160CF0198281E0F981F827BB
:101F5000FCA7CBCE21E02CA7C8CE2F923F924F9268
:101F60005F926F927F928F929F92AF92BF92CF9229
:101F7000DF92EF92FF920F931F93CF93DF93CDB732
:101F8000DEB7A4970FB6F894DEBF0FBECDBF1C011D
:101F9000498F5A8F6B8F7C8F0D8F1E8F2F8F38A399
:101FA000DC0112964D905D906D907C90159720E02D
:101FB00030E0A901C301B2010E94581D1816ACF50A
:101FC00020E030E048EC52E4C301B2010E94CA199B
:101FD00018165CF1D7012D913D914D915C912D8B9F
:101FE0003E8B4F8B588F20E030E0A9016D897E89B0
:101FF0008F89988D0E94581D1816BCF4D70114962D
:102000002D913D914D915C9117972D873E874F877C
:10201000588B20E030E0A9016D857E858F859889F9
:102020000E94581D18160CF446C0F1011682178242
:1020300010861186128613861486158616861786D4
:10204000108A118A19821A821B821C821D821E82AA
:102050001F82188619861A861B861C86A12CB12C15
:1020600065019E012F5F3F4F79010D8D1E8D2F8DD4
:1020700038A1498D5A8D6B8D7C8DC10142960E948D
:10208000D40C80E0A4960FB6F894DEBF0FBECDBF8F
:10209000DF91CF911F910F91FF90EF90DF90CF9044
:1020A000BF90AF909F908F907F906F905F904F9078
:1020B0003F902F900895298D3A8D4B8D5C8D6D8DBD
:1020C0007E8D8F8D98A10E94641B9B01AC015F7770
:1020D000298B3A8B4B8B5C8B2D893E894F89588D90
:1020E000CA01B9010E94301A2D853E854F85588955
:1020F0000E94A21C9B01AC0169897A898B899C8909
:102100000E94581D2D853E854F85588987FDD0C07A
:102110006D897E898F89988D0E94A21C698B7A8B2C
:102120008B8B9C8B2DEB37E346E855E369897A89E5
:102130008B899C890E94581D181644F08DEB97E3FB
:10214000A6E8B5E3898B9A8BAB8BBC8B20E030E0A3
:1021500048EC52E4C301B2010E94A21C2B013C01D5
:102160002D853E854F855889CA01B9010E94651B9E
:102170006D877E878F87988BA301920160E070E066
:1021800080E090E40E94641B9B01AC016D857E851C
:102190008F8598890E94A21C6D877E878F87988B78
:1021A0009B01AC010E94651B69A37AA38BA39CA32E
:1021B00029893A894B895C89C301B2010E94301A8E
:1021C0009B01AC0169A17AA18BA19CA10E94A21CD8
:1021D0002B013C012D893E894F89588DD1011696DE
:1021E0002D933D934D935C9319972D853E854F8597
:1021F00058891A962D933D934D935C931D97F10149
:1022000046865786608A718A4101F2E18F0E911CE1
:1022100020E030E0A9010E94581D1816DCF4862D3C
:10222000880F872D881F8F3FA9F020E030E0A9019B
:102230006D857E858F8598890E94581D181654F4E7
:102240002D853E854F855889842F880F852F881FBF
:102250008F3FB9F5D10116961D921D921D921C92C9
:102260001997F10112861386148615861E961D9203
:102270001D921D921C92519719821A821B821C82F8
:102280001D821E821F82188619861A861B861C864E
:10229000A12CB12C6501FE0131967F010D8D1E8DA3
:1022A0002F8D38A1498D5A8D6B8D7C8DC401E7CE61
:1022B00069897A898B899C890E94A21C0E94631D6E
:1022C0002DCF7101F6E0EF0EF11C0D8D1E8D2F8DBF
:1022D00038A1498D5A8D6B8D7C8DC4010E94D40C20
:1022E000D1CE0C94581E0C94581E0C94581ECF93AB
:1022F000DF93EC0163E172E090E080E00E942D1832
:10230000009751F00E942918688379838A839B8300
:1023100081E0DF91CF91089580E0FBCF1F920F9273
:102320000FB60F9211242F933F938F939F93AF93E8
:10233000BF938091920290919302A0919402B091E8
:1023400095023091910223E0230F2D3758F5019625
:10235000A11DB11D2093910280939202909393024C
:10236000A0939402B0939502809196029091970267
:10237000A0919802B09199020196A11DB11D809380
:10238000960290939702A0939802B0939902BF91FE
:10239000AF919F918F913F912F910F900FBE0F9012
:1023A0001F90189526E8230F0296A11DB11DD2CFCC
:1023B0001F920F920FB60F9211242F933F934F93BA
:1023C0005F936F937F938F939F93AF93BF93EF939D
:1023D000FF938AE992E00E943702FF91EF91BF914B
:1023E000AF919F918F917F916F915F914F913F91AD
:1023F0002F910F900FBE0F901F9018951F920F9264
:102400000FB60F9211242F938F939F93EF93FF9307
:10241000E091AA02F091AB028081E091B002F091CC
:10242000B10282FD1BC090818091B3028F5F8F73D8
:102430002091B402821741F0E091B302F0E0E65639
:10244000FD4F958F8093B302FF91EF919F918F91F4
:102450002F910F900FBE0F901F9018958081F4CF91
:102460001F920F920FB60F9211242F933F934F9309
:102470005F936F937F938F939F93AF93BF93CF930C
:10248000DF93EF93FF9380915002C0915B03D0E004
:1024900087FF24C010928500109284008091500222
:1024A0008F5F8093500280915002082E000C990B90
:1024B0008C179D0724F4809150028C30C4F18091D8
:1024C000840090918500049680349C4908F47AC079
:1024D0008091840090918500049676C0809150028E
:1024E000082E000C990B8C179D07C4F6E091500242
:1024F0008E2FEE0F990BFC01EE0FFF1FE80FF91F57
:10250000E95CFC4F808186FFC9CFE09150028E2F9D
:10251000EE0F990BFC01EE0FFF1FE80FF91FE95CAE
:10252000FC4F808160E08F730E944801B7CF2091FB
:10253000840030918500E09150028E2FEE0F990BB0
:10254000FC01EE0FFF1FE80FF91FE95CFC4F8181D2
:102550009281820F931F9093890080938800E0916D
:1025600050028E2FEE0F990BFC01EE0FFF1FE80FAC
:10257000F91FE95CFC4F808186FF11C0E091500299
:102580008E2FEE0F990BFC01EE0FFF1FE80FF91FC6
:10259000E95CFC4F808161E08F730E944801FF91EC
:1025A000EF91DF91CF91BF91AF919F918F917F91EB
:1025B0006F915F914F913F912F910F900FBE0F90B0
:1025C0001F90189580E49CE990938900809388007F
:1025D0008FEF80935002E3CF10929D0210929C02E5
:1025E00088EE93E0A0E0B0E080939E0290939F027B
:1025F000A093A002B093A10286EE91E090939B027B
:1026000080939A0285EC90E09093A7028093A602B3
:1026100084EC90E09093A9028093A80280EC90E073
:102620009093AB028093AA0281EC90E09093AD026C
:102630008093AC0282EC90E09093AF028093AE0264
:1026400086EC90E09093B1028093B0021092B302B6
:102650001092B4021092B5021092B60280915B0300
:102660008C3008F0A5C091E0980F90935B038093A5
:10267000FD0390E0FC01EE0FFF1FE80FF91FE95C7E
:10268000FC4F88EB9BE09283818386E092E09093FD
:1026900069038093680380E090E0A4E8B2E480934B
:1026A0006A0390936B03A0936C03B0936D03109235
:1026B0006E0310926F0310927003109271031092C8
:1026C00072031092730310927403109275031092A8
:1026D000760310927703109278031092790388EFB3
:1026E00091E090937B0380937A0310927C03109285
:1026F0007D0310927E0310927F031092800310924C
:10270000810310928203109283031092840310922B
:10271000850310928603109287031092880310920B
:10272000890310928A0310928B038CE1ECE8F3E0AA
:10273000DF01982F1D929A95E9F7E8EAF3E0DF01AF
:10274000982F1D929A95E9F7E4ECF3E0DF01982FBA
:102750001D929A95E9F7E0EEF3E0DF011D928A956C
:10276000E9F71092FC0380E090E0AAE7B4E48093DC
:102770005C0390935D03A0935E03B0935F0380E0DE
:1027800090E0AAEFB4E48093600390936103A09378
:102790006203B093630380E090E0AAEFB5E4809316
:1027A000640390936503A0936603B0936703089551
:1027B0008FEF8093FD0369CFCF93DF93CDB7DEB763
:1027C0006C970FB6F894DEBF0FBECDBF789484B57A
:1027D000826084BD84B5816084BD85B5826085BD1D
:1027E00085B5816085BD80916E00816080936E00AB
:1027F000109281008091810082608093810080919D
:10280000810081608093810080918000816080934D
:1028100080008091B10084608093B1008091B0000D
:1028200081608093B00080917A00846080937A0008
:1028300080917A00826080937A0080917A00816032
:1028400080937A0080917A00806880937A00109259
:10285000C100E091AA02F091AB0282E08083E09196
:10286000A602F091A7021082E091A802F091A902BD
:1028700080E180831092B202E091AE02F091AF024B
:1028800086E08083E091AC02F091AD0280818061AE
:102890008083E091AC02F091AD02808188608083FA
:1028A000E091AC02F091AD02808180688083E0917C
:1028B000AC02F091AD0280818F7D80838091FD0319
:1028C0008C3008F06AC0E3E2F2E02491EFE0F2E03D
:1028D0008491882399F090E0880F991FFC01EB53B5
:1028E000FF4FA591B491FC01EC50FE4F859194915E
:1028F0008FB7F894EC91E22BEC938FBF8091FD039E
:10290000282F30E0F901EE0FFF1FE20FF31FE95C03
:10291000FC4F9081907C9161908390EC9093FE03AA
:1029200092E39093FF032CE0622F0E94AA1D829FE6
:10293000B001112430E020E0AB01420F531FFA0137
:10294000EE0FFF1FE40FF51FE95CFC4F908196FD31
:1029500016C02F5F3F4F2C30310571F781110FC02A
:102960001092800082E08093810010928500109286
:102970008400B19A80916F00826080936F00E09133
:10298000FD038E2F90E0FC01EE0FFF1FE80FF91FF3
:10299000E95CFC4F80818064808360E070E88BEBB1
:1029A00094E40E94CD0684E291E00E94BD078FEE80
:1029B00090E00E94BD0786EE90E00E94A602609122
:1029C000A8017091A901072E000C880B990B0E9499
:1029D000770882EE90E00E94A6026091A6017091B5
:1029E000A701072E000C880B990B0E94770887ED32
:1029F00090E00E94A6026CED75E080E090E00E94FD
:102A000077080E94B5078FEC90E00E94BD07222452
:102A10002394312C8AE992E00E94170218161906B5
:102A20000CF0BDC18AE992E00E94F501E0919002AC
:102A30008A3019F08D3009F0A6C1EE2359F3F0E089
:102A4000E05AFD4F108263E172E080E692E00E945E
:102A50002D187C01009709F472C066E172E00E94B3
:102A6000E11E892B29F48EED91E00E94BD0767C01D
:102A70006BE172E0C7010E94E11E20915F02892B89
:102A800009F060C08DEC91E0222379F310925F028F
:102A90006091AE017091AF018091B0019091B10150
:102AA0000E94CD0685EC91E00E94BD072FB7F894F7
:102AB000609192027091930280919402909195029C
:102AC0002FBFC0905702D0905802E0905902F0906A
:102AD0005A026C197D098E099F094AE00E94670716
:102AE0008EEB91E00E94A6028090AE019090AF0123
:102AF000A090B001B090B10120E030E048EC52E489
:102B0000C501B4010E94301A6B017C0120E030E065
:102B1000A901C501B4010E94581D20E030E040E049
:102B20005FE387FF04C020E030E040E05FEBC701D7
:102B3000B6010E94651B0E94141D0E94A1081092FC
:102B4000900268CF85EB91E021118FCF60E272E0B7
:102B5000C7010E94E11E892B19F48CE991E085CF11
:102B600063E272E0C7010E94E11E892BC1F563E1B7
:102B700072E090E080E00E942D187C0182E991E0F3
:102B8000E114F10409F471CF68E272E0C7010E9418
:102B9000E11E892B39F4109252021092510280E802
:102BA00091E063CF6DE272E0C7010E94E11E892BC4
:102BB00029F43092520220925102F1CF64E372E084
:102BC000C7010E94E11E892B39F422E030E03093E6
:102BD000520220935102E3CF88E891E046CF6CE3A4
:102BE00072E0C7010E94E11E892B09F04EC0CE01A0
:102BF0000D960E947711811103C086E791E035CFD1
:102C0000CE0109960E9477118823B9F3CE0105966B
:102C10000E947711882389F3CE0101960E947711D3
:102C2000882359F38D859E85AF85B88980935C0391
:102C300090935D03A0935E03B0935F0389859A85AB
:102C4000AB85BC858093600390936103A09362037E
:102C5000B09363038D819E81AF81B88580936403B7
:102C600090936503A0936603B093670389819A816B
:102C7000AB81BC818093AA019093AB01A093AC017E
:102C8000B093AD018FE691E0F0CE60E472E0C70151
:102C90000E94E11E892B09F049C0CE0105960E94D1
:102CA00077118823B9F0CE0101960E94771188230D
:102CB00089F08D809E80AF80B88420E030E048E4C9
:102CC00054E4C501B4010E94CA1987FF06C08BE510
:102CD00091E0CBCE85E691E0C8CEC980DA80EB806A
:102CE000FC8020E030E849E055E4C701B6010E94CD
:102CF000581D181664F3A7019601C501B4010E947E
:102D0000581D87FFE4CFC501B4010E94141D7093C4
:102D1000A9016093A801C701B6010E94141D709318
:102D2000A7016093A60182E591E09FCE66E472E080
:102D3000C7010E94E11E892B81F4CE0101960E94F9
:102D40007711811103C088E491E08FCE69817A8187
:102D50008B819C810E94C907F2CE6BE472E0C701AF
:102D60000E94E11E892B61F460E070E88BEB94E433
:102D70000E94C907882309F4E2CE8FE391E075CE63
:102D800083E391E072CEEF3208F0D9CE91E09E0F4E
:102D900090939002F0E0E05AFD4F80833BCE80910B
:102DA0005F02882309F448C10E949401C0905B022D
:102DB000D0905C02E0905D02F0905E02AB01BC013D
:102DC0004C195D096E097F09403157426105710553
:102DD00008F432C1D701C601805F984DAF4FBF4F95
:102DE00080935B0290935C02A0935D02B0935E02BD
:102DF0008FB7F8948090920290909302A0909402E2
:102E0000B09095028FBF8091570290915802A09187
:102E10005902B0915A02881A990AAA0ABB0AC50136
:102E2000B4010E94CF1920E030E04AE754E40E9448
:102E3000A21C2B013C010E944307DC01ED91FC9197
:102E40000680F781E02D9E012F5F3F4F79018E01B3
:102E50000B5F1F4F285F3F4FB301A20109956985A2
:102E60007A858B859C850E94CD0689819A81AB816C
:102E7000BC81898B9A8BAB8BBC8B8D819E81AF8102
:102E8000B8858D8B9E8BAF8BB88FC984DA84EB8429
:102E9000FC8486EE91E00E94A6024AE0C501B401DE
:102EA0000E94670780E20E94C10220E030E048EC07
:102EB00052E4C701B6010E94301A698F7A8F8B8F56
:102EC0009C8F20E030E0A901C701B6010E94581D87
:102ED00020E030E040E05FE387FF04C020E030E026
:102EE00040E05FEB698D7A8D8B8D9C8D0E94651B18
:102EF0000E94141D0E94770880E20E94C10220E017
:102F000030E048EC52E46D897E898F89988D0E946B
:102F1000301A6B017C0120E030E0A9016D897E89C7
:102F20008F89988D0E94581D20E030E040E05FE3DB
:102F300087FF04C020E030E040E05FEBC701B6014E
:102F40000E94651B0E94141D0E94770880E20E9467
:102F5000C10220E030E048EC52E469897A898B892B
:102F60009C890E94301A6B017C0120E030E0A901AD
:102F700069897A898B899C890E94581D20E030E0FC
:102F800040E05FE387FF04C020E030E040E05FEB1B
:102F9000C701B6010E94651B0E94141D0E94A10872
:102FA0002AE939E949E95EE36091530270915402DC
:102FB00080915502909156020E94651B9B01AC01C5
:102FC000C301B2010E94581D87FD36C010925F02F6
:102FD0004AE0C501B4010E9467078DEE91E00E94AE
:102FE000A6028090AE019090AF01A090B001B09089
:102FF000B10120E030E048EC52E4C501B4010E9488
:10300000301A6B017C0120E030E0A901C501B40158
:103010000E94581D20E030E040E05FE387FF04C0DD
:1030200020E030E040E05FEBC701B6010E94651B85
:103030000E94141D0E94A10880E090E0892B09F4F1
:10304000E9CC0E942302882309F4E1CC0E9400000D
:10305000DECC662777270C94591840E054E00E9494
:1030600032180895FA01A191B081009719F41097D0
:10307000E1F0CD01DC01CD010D90002011F4C00183
:1030800013C0FB012191222319F02015D9F7F3CFAA
:10309000FB012191201519F41E92119606C02223DE
:1030A000C1F70D900020A1F7D001FA01A193B083E0
:1030B0000895B0E0A0E0EFE5F8E10C94021B5C019C
:1030C0007B016115710519F0DB018D939C938501DE
:1030D0000F5F1F4FF501D0818D2F90E00E94A9193D
:1030E0006C01892BB9F5DD32B9F50F5F1F4FD501A2
:1030F0001196DC91C1E05801F1E0AF1AB10843E04C
:1031000050E060E770E0C5010E94B219892B69F5B3
:10311000680182E0C80ED11C45E050E06BE670E02B
:10312000C6010E94B219892B21F4680197E0C90EEB
:10313000D11CE114F10419F0D701CD92DC9260E0CA
:1031400070E080E89FEFC111FFC060E070E080E8B0
:103150009FE7FAC05801BBCFDB3229F485010E5F2F
:103160001F4FF501D181C0E0C6CF43E050E068E6D3
:1031700070E0C5010E94B219892BE9F0F80110E056
:1031800000E020E030E0A9015F01B0ED8B2E8D0E54
:1031900089E08815C8F19C2E689491F88C2F88706E
:1031A000C2FF16C0811102C00F5F1F4F3196D501BB
:1031B000DC91C92DE9CFE114F10429F00E5F1F4F16
:1031C000F7011183008360E070E080EC9FE7BCC0F2
:1031D000882311F001501109A5E0B0E00E94F11A16
:1031E0009B01AC01220F331F441F551F280D311DB9
:1031F000411D511D283999E93907490799E15907B6
:10320000A8F2C6609C2ED2CFAEEF8A1206C0C3FDD4
:103210003CC09C2E689493F8C9CFDF7DD534A9F5C6
:1032200080818D3239F4C061DF011296818162E0C4
:1032300070E006C0DF018B32C1F3119661E070E0EF
:1032400080535D01A61AB70A8A30F8F4E0E8CE167A
:10325000ECE0DE065CF4B601660F771F660F771FA1
:10326000C60ED71ECC0CDD1CC80ED11C5D01FFEFB5
:10327000AF1ABF0A8C9180538A30A8F1C4FF03C0F3
:10328000D194C194D1080C0D1D1DC1FF09C0E114DA
:10329000F10431F081E0A81AB108D701AD92BC92D7
:1032A000CA01B9010E94CF19C370C33009F4905804
:1032B0004B015C0120E030E0A9010E94CA1988237B
:1032C00009F440C0CFE9D0E017FF05C01195019582
:1032D0001109C7E8D0E06E01B8E1CB1AD10880E24D
:1032E000E82EF12C0FC0D501B1CFFE01259135910B
:1032F000459154910E191F09C501B4010E94301A5D
:103300004B015C01D501C4010E151F0574F724970C
:10331000F594E794CC16DD06A9F78A2F880F8B2F3A
:10332000881F8F3F49F020E030E0A901C501B401BA
:103330000E94CA19811106C082E290E090930304B2
:1033400080930204C501B401CDB7DEB7ECE00C9464
:103350001E1B91110C949D1A803219F089508550D2
:10336000C8F70895FB01DC014150504088F08D9171
:1033700081341CF08B350CF4805E659161341CF057
:103380006B350CF4605E861B611171F3990B089527
:10339000881BFCCF0E940C1A08F481E00895E89481
:1033A00009C097FB3EF490958095709561957F4F8D
:1033B0008F4F9F4F9923A9F0F92F96E9BB2793953B
:1033C000F695879577956795B795F111F8CFFAF44B
:1033D000BB0F11F460FF1BC06F5F7F4F8F4F9F4F7C
:1033E00016C0882311F096E911C0772321F09EE8DA
:1033F000872F762F05C0662371F096E8862F70E040
:1034000060E02AF09A95660F771F881FDAF7880F19
:103410009695879597F90895990F0008550FAA0B6F
:10342000E0E8FEEF16161706E807F907C0F01216D7
:103430001306E407F50798F0621B730B840B950BDA
:1034400039F40A2661F0232B242B252B21F408952F
:103450000A2609F4A140A6958FEF811D811D0895CC
:103460000E94431A0C94B71A0E94A91A38F00E94BD
:10347000B01A20F0952311F00C94A01A0C94A61AFF
:1034800011240C94EB1A0E94C81A70F3959FC1F393
:10349000950F50E0551F629FF001729FBB27F00D02
:1034A000B11D639FAA27F00DB11DAA1F649F662757
:1034B000B00DA11D661F829F2227B00DA11D621FA6
:1034C000739FB00DA11D621F839FA00D611D221F60
:1034D000749F3327A00D611D231F849F600D211D44
:1034E000822F762F6A2F11249F5750409AF0F1F0C7
:1034F00088234AF0EE0FFF1FBB1F661F771F881F30
:1035000091505040A9F79E3F510580F00C94A01AAD
:103510000C94EB1A5F3FE4F3983ED4F386957795CD
:103520006795B795F795E7959F5FC1F7FE2B880FD5
:10353000911D9695879597F908959927882708955D
:1035400097F99F6780E870E060E008959FEF80EC56
:10355000089500240A9416161706180609060895F9
:1035600000240A9412161306140605060895092E5F
:103570000394000C11F4882352F0BB0F40F4BF2BCE
:1035800011F460FF04C06F5F7F4F8F4F9F4F08950E
:1035900057FD9058440F551F59F05F3F71F0479504
:1035A000880F97FB991F61F09F3F79F087950895E9
:1035B000121613061406551FF2CF4695F1DF08C008
:1035C000161617061806991FF1CF86957105610525
:1035D00008940895E894BB2766277727CB0197F9CD
:1035E00008950E94551BA59F900DB49F900DA49F18
:1035F000800D911D112408952F923F924F925F925A
:103600006F927F928F929F92AF92BF92CF92DF92F2
:10361000EF92FF920F931F93CF93DF93CDB7DEB757
:10362000CA1BDB0B0FB6F894DEBF0FBECDBF0994EB
:103630002A88398848885F846E847D848C849B8442
:10364000AA84B984C884DF80EE80FD800C811B8150
:10365000AA81B981CE0FD11D0FB6F894DEBF0FBE7F
:10366000CDBFED010895A1E21A2EAA1BBB1BFD01DF
:103670000DC0AA1FBB1FEE1FFF1FA217B307E40751
:10368000F50720F0A21BB30BE40BF50B661F771FA9
:10369000881F991F1A9469F7609570958095909589
:1036A0009B01AC01BD01CF010895A29FB001B39F62
:1036B000C001A39F700D811D1124911DB29F700D3B
:1036C000811D1124911D08955058BB27AA270E94DF
:1036D0007C1B0C94B71A0E94A91A38F00E94B01AE9
:1036E00020F039F49F3F19F426F40C94A61A0EF436
:1036F000E095E7FB0C94A01AE92F0E94C81A58F332
:10370000BA17620773078407950720F079F4A6F5C6
:103710000C94EA1A0EF4E0950B2EBA2FA02D0B0193
:10372000B90190010C01CA01A0011124FF27591B06
:1037300099F0593F50F4503E68F11A16F040A22F0C
:10374000232F342F4427585FF3CF4695379527957D
:10375000A795F0405395C9F77EF41F16BA0B620B7C
:10376000730B840BBAF09150A1F0FF0FBB1F661FC3
:10377000771F881FC2F70EC0BA0F621F731F841F06
:1037800048F4879577956795B795F7959E3F08F02C
:10379000B0CF9395880F08F09927EE0F97958795EE
:1037A0000895492FE5E593959E9F912DE3E0E99FCC
:1037B0004019EE2708950C944A1D0E94D01AD8F3A0
:1037C0009923C9F3DF93CF931F930F93FF92EF9247
:1037D000DF92CF92BF92AF929F928F929F5780F4C9
:1037E000919588232AF09395660F771F881FDAF743
:1037F000D8DF4A951AF009F44E5F9395919501C070
:10380000D0DF91589F93FF27FF248F019F014F0125
:10381000DF01EF01660F771F881FAA1F4A95D2F7B5
:1038200098E0000F111F000F111FEE0FA801AA242E
:103830004E0F511DA11C6A01EA2C440F551FAA1CF2
:103840004C0D5D1DAE1C4160A41BB50BCA0920F4D4
:10385000A40FB51FCA1D07C0AF01440F551F040FA9
:10386000151F0160E16043E0660F771F881FAA1FE4
:10387000BB1FCC1F4A95C1F79A9599F690E1000FAE
:10388000111F221F331F881C991C1094C1F7EE0FC3
:10389000FF1FFF1C0024A00150016001EE24400F17
:1038A000511FA21EB31EC81CD91CE11C4E0F5F1F66
:1038B000AF1CB11CC11CD11CE11C009441F0440F91
:1038C000551FAA1CBB1CCC1CDD1CEE1CE8CFA41B86
:1038D000B50BCA09DB096C097D098E0940F4A40FF8
:1038E000B51FCA1DDB1D6C1D7D1D8E1D0AC00E0F70
:1038F0001F1F2F1D311D811C911C0094C1F70160F9
:10390000E16043E0AA0FBB1FCC1FDD1F661F771FBE
:10391000881F4A95B9F79A9509F0B1CFBF018F2D4D
:103920009F91880F9695879597F98F909F90AF906C
:10393000BF90CF90DF90EF90FF900F911F91CF91AC
:10394000DF9108950E94B61C0C94B71A0E94B01A19
:1039500058F00E94A91A40F029F45F3F29F00C9416
:10396000A01A51110C94EB1A0C94A61A0E94C81AB2
:1039700068F39923B1F3552391F3951B550BBB279E
:10398000AA2762177307840738F09F5F5F4F220FE3
:10399000331F441FAA1FA9F335D00E2E3AF0E0E8DA
:1039A00032D091505040E695001CCAF72BD0FE2F24
:1039B00029D0660F771F881FBB1F261737074807B8
:1039C000AB07B0E809F0BB0B802DBF01FF27935870
:1039D0005F4F3AF09E3F510578F00C94A01A0C947A
:1039E000EB1A5F3FE4F3983ED4F38695779567959D
:1039F000B795F7959F5FC9F7880F911D96958795A5
:103A000097F90895E1E0660F771F881FBB1F6217C3
:103A100073078407BA0720F0621B730B840BBA0B81
:103A2000EE1F88F7E09508950E941B1D6894B11160
:103A30000C94EB1A08950E94D01A88F09F5798F0C2
:103A4000B92F9927B751B0F0E1F0660F771F881FA3
:103A5000991F1AF0BA95C9F714C0B13091F00E94BD
:103A6000EA1AB1E008950C94EA1A672F782F882794
:103A7000B85F39F0B93FCCF3869577956795B395E4
:103A8000D9F73EF490958095709561957F4F8F4F53
:103A90009F4F08959F3F31F0915020F4879577957F
:103AA0006795B795880F911D9695879597F9089515
:103AB0000E940C1A08F48FEF089519F416F40C9470
:103AC000A61A0C944A1D0E94D01AB8F39923C9F380
:103AD000B6F39F57550B87FF0E94A31D0024A0E655
:103AE00040EA900180585695979528F4805C660FBF
:103AF000771F881F20F026173707480730F4621B0E
:103B0000730B840B202931294A2BA695179407940F
:103B1000202531254A2758F7660F771F881F20F088
:103B200026173707480730F4620B730B840B200D00
:103B3000311D411DA09581F7B901842F9158880F3F
:103B400096958795089591505040660F771F881F6E
:103B5000D2F70895991B79E004C0991F961708F0D1
:103B6000961B881F7A95C9F780950895EE0FFF1F61
:103B70000590F491E02D09940F931F93CF93DF9359
:103B80008230910510F482E090E0E0910604F0911B
:103B9000070430E020E0B0E0A0E0309799F4211570
:103BA000310509F44AC0281B390B24303105D8F5FA
:103BB0008A819B816115710589F1FB019383828361
:103BC000FE0111C0408151810281138148175907BC
:103BD000E0F04817590799F4109761F012960C938A
:103BE000129713961C933296CF01DF91CF911F91BC
:103BF0000F9108950093060410930704F4CF211544
:103C0000310551F04217530738F0A901DB019A0141
:103C1000BD01DF01F801C1CFEF01F9CF9093070497
:103C200080930604CDCFFE01E20FF31F81939193A1
:103C30002250310939832883D7CF20910404309151
:103C40000504232B41F42091B4013091B501309348
:103C50000504209304042091B2013091B301211591
:103C6000310541F42DB73EB74091B6015091B701EF
:103C7000241B350BE0910404F0910504E217F307CF
:103C8000A0F42E1B3F0B2817390778F0AC014E5FCC
:103C90005F4F2417350748F04E0F5F1F5093050400
:103CA00040930404819391939FCFF0E0E0E09CCF98
:103CB000CF93DF930097E9F0FC01329713821282D1
:103CC000A0910604B0910704ED0130E020E01097C8
:103CD000A1F420813181820F931F2091040430913F
:103CE00005042817390709F061C0F0930504E09333
:103CF0000404DF91CF910895EA01CE17DF07E8F5BC
:103D00004A815B819E0141155105B1F7E901FB83B1
:103D1000EA8349915991C40FD51FEC17FD0761F44F
:103D2000808191810296840F951FE9019983888390
:103D3000828193819B838A83F0E0E0E012968D91EB
:103D40009C9113970097B9F52D913C911197CD0156
:103D50000296820F931F20910404309105042817C6
:103D6000390739F6309751F510920704109206047E
:103D7000B0930504A0930404BCCFD383C2834081D5
:103D80005181840F951FC817D90761F44E5F5F4FAB
:103D900088819981480F591F518340838A819B8173
:103DA000938382832115310509F0B0CFF093070486
:103DB000E09306049ECFFD01DC01C0CF1382128286
:103DC000D7CFFB01DC018D91019080190110D9F34F
:083DD000990B0895F894FFCF50
:103DD800BC0100000000000000000000803F00005F
:103DE80000000000000000000000000000000000CB
:103DF800000000F8010000000000000000000000C2
:103E080000000000000000000000000000000000AA
:103E1800000000000000000000000000000000009A
:103E2800000000000000000000000000000000008A
:103E3800000000000000000000000000000000007A
:103E4800000000000000000000000000000000006A
:103E5800000000000000000000000000000000005A
:103E6800000000000000000000000000000000004A
:103E7800000000000000D007E80300008442008032
:103E8800BB4400000804800000000000CA0673114B
:103E9800AD08EC02E6020000803F000000000000D0
:103EA80080BF00000000000080BF0000000000008C
:103EB800803F000000005902B901E601C60217025E
:103EC800F501090200000000CB067511D40CA70407
:103ED800A10400000000CC067111AD0F5B07550767
:103EE8000D0A0020090050494E470053544F500016
:103EF80049440054595045007472617000736375E9
:103F0800727665006A65726B706374004C494D0087
:103F180052414E4745004D4F564500484F4D4500CC
:00000001FF
